:020000001F28B7
:100008007E14803120007F08F0002100101E112886
:100018002000101E112865231A280B1F1A282100FA
:10002800921E1A282000921E1A287C23700820008D
:10003800FF007E10090020282000AE01AF01B001AA
:10004800B101B201B3017E1020002A281D2321002E
:1000580092120B1722000C108C1025008C1622000F
:100068008C16083060235023003A031D3F280000F7
:100078000000000037283E30B02272082000B1008E
:100088007108B000023031025930031930020318E8
:1000980064280230310226300319300203185A2826
:1000A800E930A6008230A700053060284A302000D9
:1000B800A6008230A7000930A8000030A900A621B8
:1000C800C6302000A6008230A7000630A800003005
:1000D800A900A621320011171215121D7628320028
:1000E8009214782832009210921C7D283200121443
:1000F8007F28320012109217931093161414141CB0
:100108008828320094148A28320094101416141E79
:1001180090283200941692283200941214179516DB
:10012800951E9928320095149B28320095101614B4
:100138001615161DA22832009614A428320096100F
:100148000130602300322000921221009216230011
:100158009714630000001D23210092120D22250030
:100168008C1222008C165023003A031DDC28000054
:1001780000000000B7282630F7000030F8001E30D5
:10018800FD20DC282630F7000030F8001B30FD2069
:10019800DC282630F7000030F8001830FD20DC2875
:1001A8002630F7000030F8001330FD20DC287923D2
:1001B80079237223003A0319E52823009710630076
:1001C80000000430B02272082000AF007108AE00B1
:1001D80020002F08003A0319F228DB282E08840093
:1001E800063004020318DB2883314A3004078200F2
:1001F800DC28F900792364001330F1000030F200A4
:10020800D822233079020318A02918307902031C58
:10021800462979082000A000A101A035A10D2008D9
:10022800D03EA200FF30213DA30080302207840089
:100238008230233D8500003FA400013FA500063021
:10024800A536A40C890B2429240829009C007908C8
:100258002000A000A101A035A10D2008D03EA200D9
:10026800FF30213DA3008030220784008230233DE7
:1002780085000008A4000130A435FF3E031D402975
:1002880024359D290C307902031C7D29790820002A
:10029800A000A101A035A10D2008E83EA200FF3072
:1002A800213DA3008030220784008230233D850051
:1002B800003FA400013FA5000730A536A40C890B18
:1002C8006129240829009C0079082000A000A101C8
:1002D800A035A10D2008E83EA200FF30213DA30073
:1002E8008030220784008230233D850000080907FA
:1002F8009D2979082000A000A101A035A10D80301A
:10030800200784008230213D8500003FA200013F84
:10031800A300230829009C0079082000A000A1015F
:10032800A035A10D8030200784008230213D850052
:10033800000829009B0076237808F2007708F1006E
:10034800D82208002000AC01AD0129082D02031DA8
:10035800AF2928082C020318E4292D08F2002C08DC
:10036800F1000330F3000030F4006522710820002A
:100378002607AA007208273DAB0001302A0784002F
:100388002B0803182B0A8500003FF700013FF800EF
:100398002D08F2002C08F1000330F3000030F400BF
:1003A800652220002608710784002708723D850011
:1003B8000008FD2001302000AC070030AD3DA92920
:1003C800792308000934583402340B345834023481
:1003D8000D34B03404340B345834023409345834EE
:1003E80002342334603409340934583402340B3469
:1003F800583402340D34583402340B34583402342F
:100408000934583402340B34B0340434233460349F
:10041800093479237623103029009C0062309B0030
:10042800E130F1000030F200D82279231330F100D6
:100438000030F200D8227623083029009C003130A1
:100448009B00C230F1000130F200D8227923080065
:10045800203022008C00103021008C001430230042
:100468008C00083024008C00033025008C00270005
:100478009311921591117F30F1000330F200562349
:10048800210010161F303D009204080004342C345B
:10049800013400345834023423342C340134043405
:1004A8002C34013400345834023423342C340134CD
:1004B80004342C34013400345834023423342C34BA
:1004C8000134F501F601711C6D2A7308F5077408EB
:1004D800F63D0130F335F40D890B6E2A0130F23602
:1004E800F10C890B732A71087204031D672A7608B8
:1004F800F2007508F100080025340234453402344E
:10050800683402348C340234B3340234DC340234B8
:100518000834033436340334673403349B340334E7
:10052800D23403340C34043400342C34013404340D
:100538002C34013407345834023423342C34013435
:100548000C342C34013410342C34013413342C344E
:100558000134183458340234F4007408F300F30DED
:10056800F30D21001D087306033973069D001D1441
:10057800000021009D149D18BF2A1C08F2001B08CA
:10058800F100080004348434033404342C34013476
:100598000734B034043402348434033404342C343F
:1005A80001340534B03404342930890BD92A003297
:1005B8000130F1020030F23B7208F4007108F300D8
:1005C8007308740403190800D82A00345834023414
:1005D80023342C34013400345834023423342C347A
:1005E800013400345834023429009E019F019A01D5
:1005F800990198019D0110309C0062309B009E1764
:100608000800210092128030220091006930920087
:10061800200092122100921608007A087B04031920
:100628001A2B7B088A007A080A0083312700931165
:1006380008003A232C2228236A236E23052331231A
:10064800F8225B23422308006030320099009B01A6
:100658009D019F0120309E000800013021009D006F
:1006680083309E009F019B019C010800320091018C
:1006780092019301940195019601080027001C122C
:100688009D0108309E009F019C170800BF28BF28C5
:10069800BF28C628CD28D4282200170E890C890C1B
:1006A800013908007208FB007108FA000800803060
:1006B8002200980099010800F100710822009900B1
:1006C80008002700931D0800112308001C30210092
:1006D80097000800813022009700080022001508C2
:1006E8000139080027001C14080027001C10080006
:0806F800200092120800080026
:020000040001F9
:08000E00ECFF3AFFFFDFFFFFEA
:00000001FF
