:020000001F28B7
:100008007E14803120007F08F0002100101E112886
:100018002000101E11280F231A280B1F1A28210050
:10002800921E1A282000921E1A28222370082000E7
:10003800FF007E10090020282000AE01AF01B001AA
:10004800B101B201B3017E102000D328F9001F23AB
:1000580064001330F1000030F2008122233079026D
:100068000318CD2818307902031C7328790820005A
:10007800A000A101A035A10D2008D03EA200FF30AC
:10008800213DA3002930220784008230233D8500CA
:10009800003FA400013FA5000630A536A40C890B3B
:1000A8005128240829009C0079082000A000A101FB
:1000B800A035A10D2008D03EA200FF30213DA300AD
:1000C8002930220784008230233D85000008A400DF
:1000D8000130A435FF3E031D6D282435CA280C3095
:1000E8007902031CAA2879082000A000A101A035E4
:1000F800A10D2008E83EA200FF30213DA3002930D1
:10010800220784008230233D8500003FA400013F80
:10011800A5000730A536A40C890B8E2824082900D1
:100128009C0079082000A000A101A035A10D20089D
:10013800E83EA200FF30213DA300293022078400B9
:100148008230233D850000080907CA287908200065
:10015800A000A101A035A10D29302007840082301C
:10016800213D8500003FA200013FA300230829008C
:100178009C0079082000A000A101A035A10D29301C
:10018800200784008230213D8500000829009B005B
:100198001C237808F2007708F10081220800C622A3
:1001A8008B170B1722000C108C108C1208300A23A6
:1001B800FF22003A031DE428000000000000DC28AC
:1001C8003E30592272082000B1007108B000023098
:1001D800310259300319300203180929023031025B
:1001E8002630031930020318FF289230A600823007
:1001F800A70005300529F3302000A6008130A700AC
:100208000930A8000030A9004F216F302000A60057
:100218008230A7000630A8000030A9004F216300F3
:100228000000B62122008C1636292630F70000304F
:10023800F8001E302A2036292630F7000030F80052
:100248001B302A2036292630F7000030F8001830F5
:100258002A2036292630F7000030F80013302A20EB
:1002680036291F231F230430592272082000AF00AB
:100278007108AE0020002F08003A031944293529D7
:100288002E08840006300402031835298231F33021
:100298000407820036292000AC01AD0129082D028F
:1002A800031D582928082C0203188D292D08F2004F
:1002B8002C08F1000330F3000030F4000E2271081E
:1002C80020002607AA007208273DAB0001302A0744
:1002D80084002B0803182B0A8500003FF700013F14
:1002E800F8002D08F2002C08F1000330F30000306C
:1002F800F4000E2220002608710784002708723DAA
:10030800850000082A2001302000AC070030AD3DF0
:1003180052291F2308000934583402340B34583446
:1003280002340D34B03404340B34583402340934F4
:1003380058340234233460340934093458340234CC
:100348000B34583402340D34583402340B345834D6
:1003580002340934583402340B34B03404342334AE
:10036800603409341F231C23103029009C0062309C
:100378009B00E130F1000030F20081221F2313308E
:10038800F1000030F20081221C23083029009C0073
:1003980031309B00C230F1000130F20081221F236E
:1003A8000800203022008C00103021008C0014300E
:1003B80023008C00083024008C00033025008C00BA
:1003C80027009311921591112530F1000330F200A6
:1003D8000523210010161F303D0092040800043444
:1003E8002C34013400345834023423342C3401348E
:1003F80004342C34013400345834023423342C347B
:10040800013404342C340134003458340234233495
:100418002C340134F501F601711C162A7308F5070E
:100428007408F63D0130F335F40D890B172A0130B5
:10043800F236F10C890B1C2A71087204031D102A6C
:100448007608F2007508F1000800253402344534B6
:100458000234683402348C340234B3340234DC3469
:1004680002340834033436340334673403349B3499
:100478000334D23403340C34043400342C340134BF
:1004880004342C34013407345834023423342C34E3
:1004980001340C342C34013410342C34013413342A
:1004A8002C340134183458340234F4007408F3003E
:1004B800F30DF30D21001D087306033973069D0023
:1004C8001D14000021009D149D18682A1C08F200C4
:1004D8001B08F100080004348434033404342C3439
:1004E80001340734B034043402348434033404341B
:1004F8002C3401340534B03404342930890B822A71
:1005080000320130F1020030F23B7208F400710849
:10051800F3007308740403190800812A003458345E
:10052800023423342C340134003458340234233454
:100538002C34013400345834023429009E019F01C0
:100548009A01990198019D0110309C0062309B002E
:100558009E17080021009212843022009100E93091
:100568009200200092122100921608007A087B045B
:100578000319C32A7B088A007A080A0082312700F7
:1005880093110800E322D521D12214231823AE2287
:10059800DA22A122F922EB22080060303200990009
:1005A8009B019D019F0120309E0008000130210021
:1005B8009D0083309E009F019B019C010800320032
:1005C8009101920193019401950196010800270079
:1005D8001C129D0108309E009F019C1708001929D4
:1005E80019291929202927292E298830220098001D
:1005F8001F30990008002200170E890C890C013958
:1006080008007208FB007108FA000800F100710880
:100618002200990008002700931D0800BA2208004C
:10062800203021009700080085302200970008003C
:1006380027001C14080027001C1008002000921234
:04064800080008009E
:020000040001F9
:08000E00ECFF3AFFFFDFFFFFEA
:00000001FF
