:020000001F28B7
:100008007E14803120007F08F0002100101E112886
:100018002000101E1128AE231A280B1F1A282100B1
:10002800921E1A282000921E1A28C5237008200044
:10003800FF007E10090020282000AE01AF01B001AA
:10004800B101B201B3017E1020002A2866232100E5
:1000580092128B170B1722000C108C1025008C168F
:1000680022008C160830A9239923003A031D402842
:1000780000000000000038283E30F92272082000F5
:10008800B1007108B0000230310259300319300252
:10009800031865280230310226300319300203188C
:1000A8005B283230A6008330A700053061289330E2
:1000B8002000A6008230A7000930A8000030A9005F
:1000C800EF210F302000A6008330A7000630A800DB
:1000D8000030A900EF21320011171215121D7728E0
:1000E80032009214792832009210921C7E28320035
:1000F80012148028320012109217931093161414B9
:10010800141C8928320094148B2832009410141679
:10011800141E912832009416932832009412141752
:100128009516951E9A28320095149C283200951031
:1001380016141615161DA32832009614A528320089
:1001480096100030A9230032200092122100921646
:10015800171023009714630000006623210017146A
:1001680032001215121DBB2832009214BD2832002D
:100178009210921CC22832001214C42832001210A5
:100188001414141CCA2832009414CC283200941079
:100198001416141ED22832009416D4283200941251
:1001A80014179516951EDB2832009514DD283200A9
:1001B80095101615161DE32832009614E52832000E
:1001C8009610562225008C1222008C16C223250078
:1001D8008C1622008C16BB23003A031D0F2932000F
:1001E8009217111723009714630000002000031EC4
:1001F800010025008C1222008C1632001113B7233F
:100208003200921341239923003A031D0F2900005D
:100218000000000007290430F92272082000AF000E
:100228007108AE0035291330F7000030F8001E3091
:100238004621EA282630F7000030F8001B30462116
:10024800EA284B30F7000030F80018304621EA2839
:100258009630F7000030F80013304621EA28C22310
:10026800EA2820002F08003A03193B2933292E08D1
:1002780084000630040203183329833193300407BD
:100288008200EA28F900C22364001330F10000302C
:10029800F2002123233079020318E9291830790262
:1002A800031C8F2979082000A000A101A035A10D09
:1002B8002008D03EA200FF30213DA300C93022070C
:1002C80084008230233D8500003FA400013FA50043
:1002D8000630A536A40C890B6D29240829009C003A
:1002E80079082000A000A101A035A10D2008D03E6A
:1002F800A200FF30213DA300C930220784008230CC
:10030800233D85000008A4000130A435FF3E031DED
:1003180089292435E6290C307902031CC629790875
:100328002000A000A101A035A10D2008E83EA200F0
:10033800FF30213DA300C930220784008230233DCD
:100348008500003FA400013FA5000730A536A40C96
:10035800890BAA29240829009C0079082000A000FC
:10036800A101A035A10D2008E83EA200FF30213DE3
:10037800A300C930220784008230233D850000088D
:100388000907E62979082000A000A101A035A10DE0
:10039800C930200784008230213D8500003FA2003B
:1003A800013FA300230829009C0079082000A00031
:1003B800A101A035A10DC930200784008230213D5C
:1003C8008500000829009B00BF237808F200770801
:1003D800F100212308002000AC01AD0129082D02FD
:1003E800031DF82928082C0203182D2A2D08F200CD
:1003F8002C08F1000330F3000030F400AE2271083D
:1004080020002607AA007208273DAB0001302A0702
:1004180084002B0803182B0A8500003FF700013FD2
:10042800F8002D08F2002C08F1000330F30000302A
:10043800F400AE2220002608710784002708723DC8
:1004480085000008462101302000AC070030AD3D92
:10045800F229C22308000934583402340B345834C2
:1004680002340D34B03404340B34583402340934B3
:10047800583402342334603409340934583402348B
:100488000B34583402340D34583402340B34583495
:1004980002340934583402340B34B034043423346D
:1004A80060340934C223BF23103029009C00623015
:1004B8009B00E130F1000030F2002123C223133009
:1004C800F1000030F2002123BF23083029009C00EE
:1004D80031309B00C230F1000130F2002123C223E9
:1004E8000800203022008C00103021008C001430CD
:1004F80023008C00083024008C00033025008C0079
:100508002700931192159111C830F1000330F200C1
:100518009F23210010161F303D0092040800043468
:100528002C34013400345834023423342C3401344C
:1005380004342C34013400345834023423342C3439
:10054800013404342C340134003458340234233454
:100558002C340134F501F601711CB62A7308F5072D
:100568007408F63D0130F335F40D890BB72A0130D4
:10057800F236F10C890BBC2A71087204031DB02AEB
:100588007608F2007508F100080025340234453475
:100598000234683402348C340234B3340234DC3428
:1005A80002340834033436340334673403349B3458
:1005B8000334D23403340C34043400342C3401347E
:1005C80004342C34013407345834023423342C34A2
:1005D80001340C342C34013410342C3401341334E9
:1005E8002C340134183458340234F4007408F300FD
:1005F800F30DF30D21001D087306033973069D00E2
:100608001D14000021009D149D18082B1C08F200E1
:100618001B08F100080004348434033404342C34F7
:1006280001340734B03404340234843403340434D9
:100638002C3401340534B03404342930890B222B8E
:1006480000320130F1020030F23B7208F400710808
:10065800F3007308740403190800212B003458347C
:10066800023423342C340134003458340234233413
:100678002C34013400345834023429009E019F017F
:100688009A01990198019D0110309C0062309B00ED
:100698009E17080021009212803022009100A93094
:1006A8009200200092122100921608007A087B041A
:1006B8000319632B7B088A007A080A008331270014
:1006C80093110800832375227123B323B7234E2384
:1006D8007A234123A4238B23080060303200990039
:1006E8009B019D019F0120309E00080001302100E0
:1006F8009D0083309E009F019B019C0108003200F1
:100708009101920193019401950196010800270037
:100718001C129D0108309E009F019C170800172994
:10072800172917291E2925292C292200170E890C7B
:10073800890C013908007208FB007108FA000800EA
:1007480080302200980099010800F1007108220009
:10075800990008002700931D08005A2308001C3040
:10076800210097000800813022009700080022002D
:1007780015080139080027001C14080027001C1060
:0A078800080020009212080008008B
:020000040001F9
:08000E00ECFF36FFFFDFFFFFEE
:00000001FF
